:060000000A128A110E280D
:10000800FE00030EF2000408F3000A08F4000A12C6
:100018008A1123290A128A11112883135430FD00EA
:100028000230FE001330FF00403084000A128A11AB
:100038002B220A128A110A128A113A220A128A11EA
:10004800F800DB0183010A128A112A280A128A1190
:10005800E0210A128A112C308400403083120313E5
:10006800A8000408A9001430AA00280884008313F3
:100078000008AB00A80A290884002B088000A90AF8
:10008800AA0B39286430A0000030A1005B08A80042
:10009800A9012808A2002908A3000A128A11BA2077
:1000A8000A128A11831203132008AA002A08D8000A
:1000B8006430A0000030A1005B08A800A90128084E
:1000C800A2002908A3000A128A1185210A128A119E
:1000D800831203132008AA002A08D4000A30A000BB
:1000E8000030A1005408A200A301A21BA3030A1216
:1000F8008A11BA200A128A11831203132008A80051
:100108002808D9000A30A0000030A1005408A20035
:10011800A301A21BA3030A128A1185210A128A11BC
:10012800831203132008A8002808DA005A08A80038
:1001380028072C3E840083130008A9002908D7004B
:100148005908A80028072C3E84000008A90029089F
:10015800D6005808A80028072C3E84000008A900EB
:100168002908D50046280A128A110E28831203137B
:10017800A501A11FC028C128C828A009A109A00A53
:100188000319A10AA501A50AA31FCB28CC28D528A5
:10019800A209A309A20A0319A30A0130F5007508E8
:1001A800A506A601A701200821040319DC28DD28DB
:1001B8001429A401A40AEB2801300310A00DA10DF5
:1001C800FF3E031DE1280130F5007508A407A11FB3
:1001D800EE28EF28E02801300310A60DA70DFF3EFA
:1001E800031DF02821082302031DFC2820082202F1
:1001F800031CFF28002907292008A2022108031C44
:10020800A303A302261401300310A10CA00CFF3E87
:10021800031D08290130A402031D13291429EF28FE
:1002280025080319182919291E29A609A709A60AA4
:100238000319A70A2708A1002608A00008000B1C1C
:10024800262927293E298312031306182C292D292C
:1002580035290130F000700885070130F00070087A
:10026800DB078618382939293D29013085020130F4
:10027800DB020B100B1D412942297C296229013020
:10028800831203138800550887000230F0007008B5
:10029800F800772902308312031388005608870074
:1002A8000330F0007008F800772904308312031334
:1002B800880057088700F801F80A77297808F000BD
:1002C800F101F01BF1037108003A03196C29772931
:1002D8007008013A03194329033A03194E29013AD0
:1002E8000319592977290B11F83083120313810058
:1002F80074088A0073088400720E8300FE0E7E0E56
:100308000900F70183120313A31F8B298C29932952
:10031800A209A309A20A0319A30AF701F70AA11F50
:10032800962997299C29A009A109A00A0319A10ABD
:10033800200821040319A129A229D129F601F60AC6
:10034800B02901300310A00DA10DFF3E031DA62901
:100358000130F5007508F607A11FB329B429A529AE
:1003680021082302031DBA2920082202031CBD29E3
:10037800BE29C4292008A2022108031CA303A30242
:1003880001300310A10CA00CFF3E031DC52901304C
:10039800F602031DD029D129B42977080319D529D4
:1003A800D629DB29A209A309A20A0319A30A23084B
:1003B800A1002208A00008008316031788018901FC
:1003C800831603130F088F3960388F000F148701C5
:1003D8008312031387018316031385018312031302
:1003E800850183160313880183120313880183167A
:1003F8000313061486148113151495148B178B1583
:100408008B16161496140B10811281110114811485
:100418000115F8308312031381000B1108003F34D3
:100428000034063400345B3400344F34003466340E
:1004380000346D3400347D340034073400347F34A4
:1004480000346F3400347E088A007F0882000A1264
:100458008A1127220A128A118000840A04087D065C
:0E04680003190034FF0A0319FE0A2B2A01347F
:08400000FF3FFF3FFF3FFF3FC0
:04400E00D420FF3F7C
:00000001FF
